{
  "_format": "hh-sol-artifact-1",
  "contractName": "MyEpicNFT",
  "sourceName": "contracts/MyEpicNFT.sol",
  "abi": [
    {
      "inputs": [],
      "stateMutability": "nonpayable",
      "type": "constructor"
    },
    {
      "anonymous": false,
      "inputs": [
        {
          "indexed": true,
          "internalType": "address",
          "name": "owner",
          "type": "address"
        },
        {
          "indexed": true,
          "internalType": "address",
          "name": "approved",
          "type": "address"
        },
        {
          "indexed": true,
          "internalType": "uint256",
          "name": "tokenId",
          "type": "uint256"
        }
      ],
      "name": "Approval",
      "type": "event"
    },
    {
      "anonymous": false,
      "inputs": [
        {
          "indexed": true,
          "internalType": "address",
          "name": "owner",
          "type": "address"
        },
        {
          "indexed": true,
          "internalType": "address",
          "name": "operator",
          "type": "address"
        },
        {
          "indexed": false,
          "internalType": "bool",
          "name": "approved",
          "type": "bool"
        }
      ],
      "name": "ApprovalForAll",
      "type": "event"
    },
    {
      "anonymous": false,
      "inputs": [
        {
          "indexed": false,
          "internalType": "address",
          "name": "sender",
          "type": "address"
        },
        {
          "indexed": false,
          "internalType": "uint256",
          "name": "tokenId",
          "type": "uint256"
        }
      ],
      "name": "NewEpicNFTMinted",
      "type": "event"
    },
    {
      "anonymous": false,
      "inputs": [
        {
          "indexed": true,
          "internalType": "address",
          "name": "from",
          "type": "address"
        },
        {
          "indexed": true,
          "internalType": "address",
          "name": "to",
          "type": "address"
        },
        {
          "indexed": true,
          "internalType": "uint256",
          "name": "tokenId",
          "type": "uint256"
        }
      ],
      "name": "Transfer",
      "type": "event"
    },
    {
      "inputs": [
        {
          "internalType": "address",
          "name": "to",
          "type": "address"
        },
        {
          "internalType": "uint256",
          "name": "tokenId",
          "type": "uint256"
        }
      ],
      "name": "approve",
      "outputs": [],
      "stateMutability": "nonpayable",
      "type": "function"
    },
    {
      "inputs": [
        {
          "internalType": "address",
          "name": "owner",
          "type": "address"
        }
      ],
      "name": "balanceOf",
      "outputs": [
        {
          "internalType": "uint256",
          "name": "",
          "type": "uint256"
        }
      ],
      "stateMutability": "view",
      "type": "function"
    },
    {
      "inputs": [
        {
          "internalType": "uint256",
          "name": "tokenId",
          "type": "uint256"
        }
      ],
      "name": "getApproved",
      "outputs": [
        {
          "internalType": "address",
          "name": "",
          "type": "address"
        }
      ],
      "stateMutability": "view",
      "type": "function"
    },
    {
      "inputs": [],
      "name": "getTotalMinted",
      "outputs": [
        {
          "internalType": "uint256",
          "name": "",
          "type": "uint256"
        }
      ],
      "stateMutability": "view",
      "type": "function"
    },
    {
      "inputs": [
        {
          "internalType": "address",
          "name": "owner",
          "type": "address"
        },
        {
          "internalType": "address",
          "name": "operator",
          "type": "address"
        }
      ],
      "name": "isApprovedForAll",
      "outputs": [
        {
          "internalType": "bool",
          "name": "",
          "type": "bool"
        }
      ],
      "stateMutability": "view",
      "type": "function"
    },
    {
      "inputs": [],
      "name": "makeAnEpicNFT",
      "outputs": [],
      "stateMutability": "nonpayable",
      "type": "function"
    },
    {
      "inputs": [],
      "name": "name",
      "outputs": [
        {
          "internalType": "string",
          "name": "",
          "type": "string"
        }
      ],
      "stateMutability": "view",
      "type": "function"
    },
    {
      "inputs": [
        {
          "internalType": "uint256",
          "name": "tokenId",
          "type": "uint256"
        }
      ],
      "name": "ownerOf",
      "outputs": [
        {
          "internalType": "address",
          "name": "",
          "type": "address"
        }
      ],
      "stateMutability": "view",
      "type": "function"
    },
    {
      "inputs": [
        {
          "internalType": "uint256",
          "name": "tokenId",
          "type": "uint256"
        }
      ],
      "name": "pickRandomFirstWord",
      "outputs": [
        {
          "internalType": "string",
          "name": "",
          "type": "string"
        }
      ],
      "stateMutability": "view",
      "type": "function"
    },
    {
      "inputs": [
        {
          "internalType": "uint256",
          "name": "tokenId",
          "type": "uint256"
        }
      ],
      "name": "pickRandomSecondWord",
      "outputs": [
        {
          "internalType": "string",
          "name": "",
          "type": "string"
        }
      ],
      "stateMutability": "view",
      "type": "function"
    },
    {
      "inputs": [
        {
          "internalType": "uint256",
          "name": "tokenId",
          "type": "uint256"
        }
      ],
      "name": "pickRandomThirdWord",
      "outputs": [
        {
          "internalType": "string",
          "name": "",
          "type": "string"
        }
      ],
      "stateMutability": "view",
      "type": "function"
    },
    {
      "inputs": [
        {
          "internalType": "address",
          "name": "from",
          "type": "address"
        },
        {
          "internalType": "address",
          "name": "to",
          "type": "address"
        },
        {
          "internalType": "uint256",
          "name": "tokenId",
          "type": "uint256"
        }
      ],
      "name": "safeTransferFrom",
      "outputs": [],
      "stateMutability": "nonpayable",
      "type": "function"
    },
    {
      "inputs": [
        {
          "internalType": "address",
          "name": "from",
          "type": "address"
        },
        {
          "internalType": "address",
          "name": "to",
          "type": "address"
        },
        {
          "internalType": "uint256",
          "name": "tokenId",
          "type": "uint256"
        },
        {
          "internalType": "bytes",
          "name": "_data",
          "type": "bytes"
        }
      ],
      "name": "safeTransferFrom",
      "outputs": [],
      "stateMutability": "nonpayable",
      "type": "function"
    },
    {
      "inputs": [
        {
          "internalType": "address",
          "name": "operator",
          "type": "address"
        },
        {
          "internalType": "bool",
          "name": "approved",
          "type": "bool"
        }
      ],
      "name": "setApprovalForAll",
      "outputs": [],
      "stateMutability": "nonpayable",
      "type": "function"
    },
    {
      "inputs": [
        {
          "internalType": "bytes4",
          "name": "interfaceId",
          "type": "bytes4"
        }
      ],
      "name": "supportsInterface",
      "outputs": [
        {
          "internalType": "bool",
          "name": "",
          "type": "bool"
        }
      ],
      "stateMutability": "view",
      "type": "function"
    },
    {
      "inputs": [],
      "name": "symbol",
      "outputs": [
        {
          "internalType": "string",
          "name": "",
          "type": "string"
        }
      ],
      "stateMutability": "view",
      "type": "function"
    },
    {
      "inputs": [
        {
          "internalType": "uint256",
          "name": "tokenId",
          "type": "uint256"
        }
      ],
      "name": "tokenURI",
      "outputs": [
        {
          "internalType": "string",
          "name": "",
          "type": "string"
        }
      ],
      "stateMutability": "view",
      "type": "function"
    },
    {
      "inputs": [
        {
          "internalType": "address",
          "name": "from",
          "type": "address"
        },
        {
          "internalType": "address",
          "name": "to",
          "type": "address"
        },
        {
          "internalType": "uint256",
          "name": "tokenId",
          "type": "uint256"
        }
      ],
      "name": "transferFrom",
      "outputs": [],
      "stateMutability": "nonpayable",
      "type": "function"
    }
  ],
  "bytecode": "0x608060405260405180610160016040528061013c81526020016200423461013c9139600890805190602001906200003892919062000643565b506040518060a001604052806040518060400160405280600981526020017f4b69642053697a6520000000000000000000000000000000000000000000000081525081526020016040518060400160405280600681526020017f536d616c6c20000000000000000000000000000000000000000000000000000081525081526020016040518060400160405280600781526020017f4d656469756d200000000000000000000000000000000000000000000000000081525081526020016040518060400160405280600681526020017f4c6172676520000000000000000000000000000000000000000000000000000081525081526020016040518060400160405280600581526020017f36346f7a2000000000000000000000000000000000000000000000000000000081525081525060099060056200017b929190620006d4565b506040518060c001604052806040518060400160405280600681526020017f446563616620000000000000000000000000000000000000000000000000000081525081526020016040518060400160405280600b81526020017f57686f6c65204d696c6b2000000000000000000000000000000000000000000081525081526020016040518060400160405280600981526020017f4f6174204d696c6b20000000000000000000000000000000000000000000000081525081526020016040518060400160405280600c81526020017f416c6d6f6e64204d696c6b20000000000000000000000000000000000000000081525081526020016040518060400160405280600a81526020017f457874726120486f74200000000000000000000000000000000000000000000081525081526020016040518060400160405280600b81526020017f4578747261205768697020000000000000000000000000000000000000000000815250815250600a906006620002f99291906200073b565b506040518060c001604052806040518060400160405280600981526020017f436170707563696e6f000000000000000000000000000000000000000000000081525081526020016040518060400160405280600581526020017f4d6f63686100000000000000000000000000000000000000000000000000000081525081526020016040518060400160405280600581526020017f4c6174746500000000000000000000000000000000000000000000000000000081525081526020016040518060400160405280600a81526020017f466c61742057686974650000000000000000000000000000000000000000000081525081526020016040518060400160405280600981526020017f4d616368696174746f000000000000000000000000000000000000000000000081525081526020016040518060400160405280600781526020017f436f727461646f00000000000000000000000000000000000000000000000000815250815250600b906006620004779291906200073b565b503480156200048557600080fd5b506040518060400160405280600a81526020017f436f6666656520426172000000000000000000000000000000000000000000008152506040518060400160405280600981526020017f434f46464545424152000000000000000000000000000000000000000000000081525081600090805190602001906200050a92919062000643565b5080600190805190602001906200052392919062000643565b505050620005716040518060400160405280601e81526020017f54686973206973206d79204e465420636f6e74726163742e20576f61682100008152506200057760201b620012631760201c565b6200095c565b62000617816040516024016200058e919062000870565b6040516020818303038152906040527f41304fac000000000000000000000000000000000000000000000000000000007bffffffffffffffffffffffffffffffffffffffffffffffffffffffff19166020820180517bffffffffffffffffffffffffffffffffffffffffffffffffffffffff83818316178352505050506200061a60201b60201c565b50565b60008151905060006a636f6e736f6c652e6c6f679050602083016000808483855afa5050505050565b8280546200065190620008e6565b90600052602060002090601f016020900481019282620006755760008555620006c1565b82601f106200069057805160ff1916838001178555620006c1565b82800160010185558215620006c1579182015b82811115620006c0578251825591602001919060010190620006a3565b5b509050620006d09190620007a2565b5090565b82805482825590600052602060002090810192821562000728579160200282015b82811115620007275782518290805190602001906200071692919062000643565b5091602001919060010190620006f5565b5b509050620007379190620007c1565b5090565b8280548282559060005260206000209081019282156200078f579160200282015b828111156200078e5782518290805190602001906200077d92919062000643565b50916020019190600101906200075c565b5b5090506200079e9190620007c1565b5090565b5b80821115620007bd576000816000905550600101620007a3565b5090565b5b80821115620007e55760008181620007db9190620007e9565b50600101620007c2565b5090565b508054620007f790620008e6565b6000825580601f106200080b57506200082c565b601f0160209004906000526020600020908101906200082b9190620007a2565b5b50565b60006200083c8262000894565b6200084881856200089f565b93506200085a818560208601620008b0565b62000865816200094b565b840191505092915050565b600060208201905081810360008301526200088c81846200082f565b905092915050565b600081519050919050565b600082825260208201905092915050565b60005b83811015620008d0578082015181840152602081019050620008b3565b83811115620008e0576000848401525b50505050565b60006002820490506001821680620008ff57607f821691505b602082108114156200091657620009156200091c565b5b50919050565b7f4e487b7100000000000000000000000000000000000000000000000000000000600052602260045260246000fd5b6000601f19601f8301169050919050565b6138c8806200096c6000396000f3fe608060405234801561001057600080fd5b50600436106101165760003560e01c806370a08231116100a2578063b88d4fde11610071578063b88d4fde14610305578063c575757a14610321578063c87b56dd14610351578063de9d132f14610381578063e985e9c51461038b57610116565b806370a082311461026b57806395d89b411461029b578063a22cb465146102b9578063b187301f146102d557610116565b80630ca1c5c9116100e95780630ca1c5c9146101b557806323b872dd146101d35780632de38d68146101ef57806342842e0e1461021f5780636352211e1461023b57610116565b806301ffc9a71461011b57806306fdde031461014b578063081812fc14610169578063095ea7b314610199575b600080fd5b610135600480360381019061013091906124f6565b6103bb565b604051610142919061313e565b60405180910390f35b61015361049d565b6040516101609190613159565b60405180910390f35b610183600480360381019061017e9190612548565b61052f565b60405161019091906130ae565b60405180910390f35b6101b360048036038101906101ae91906124ba565b6105b4565b005b6101bd6106cc565b6040516101ca91906133b9565b60405180910390f35b6101ed60048036038101906101e891906123b4565b6106dd565b005b61020960048036038101906102049190612548565b61073d565b6040516102169190613159565b60405180910390f35b610239600480360381019061023491906123b4565b61085b565b005b61025560048036038101906102509190612548565b61087b565b60405161026291906130ae565b60405180910390f35b6102856004803603810190610280919061234f565b61092d565b60405161029291906133b9565b60405180910390f35b6102a36109e5565b6040516102b09190613159565b60405180910390f35b6102d360048036038101906102ce919061247e565b610a77565b005b6102ef60048036038101906102ea9190612548565b610bf8565b6040516102fc9190613159565b60405180910390f35b61031f600480360381019061031a9190612403565b610d16565b005b61033b60048036038101906103369190612548565b610d78565b6040516103489190613159565b60405180910390f35b61036b60048036038101906103669190612548565b610e96565b6040516103789190613159565b60405180910390f35b610389610fe8565b005b6103a560048036038101906103a09190612378565b6111cf565b6040516103b2919061313e565b60405180910390f35b60007f80ac58cd000000000000000000000000000000000000000000000000000000007bffffffffffffffffffffffffffffffffffffffffffffffffffffffff1916827bffffffffffffffffffffffffffffffffffffffffffffffffffffffff1916148061048657507f5b5e139f000000000000000000000000000000000000000000000000000000007bffffffffffffffffffffffffffffffffffffffffffffffffffffffff1916827bffffffffffffffffffffffffffffffffffffffffffffffffffffffff1916145b806104965750610495826112fc565b5b9050919050565b6060600080546104ac90613658565b80601f01602080910402602001604051908101604052809291908181526020018280546104d890613658565b80156105255780601f106104fa57610100808354040283529160200191610525565b820191906000526020600020905b81548152906001019060200180831161050857829003601f168201915b5050505050905090565b600061053a82611366565b610579576040517f08c379a000000000000000000000000000000000000000000000000000000000815260040161057090613319565b60405180910390fd5b6004600083815260200190815260200160002060009054906101000a900473ffffffffffffffffffffffffffffffffffffffff169050919050565b60006105bf8261087b565b90508073ffffffffffffffffffffffffffffffffffffffff168373ffffffffffffffffffffffffffffffffffffffff161415610630576040517f08c379a000000000000000000000000000000000000000000000000000000000815260040161062790613379565b60405180910390fd5b8073ffffffffffffffffffffffffffffffffffffffff1661064f6113d2565b73ffffffffffffffffffffffffffffffffffffffff16148061067e575061067d816106786113d2565b6111cf565b5b6106bd576040517f08c379a00000000000000000000000000000000000000000000000000000000081526004016106b490613259565b60405180910390fd5b6106c783836113da565b505050565b60006106d86007611493565b905090565b6106ee6106e86113d2565b826114a1565b61072d576040517f08c379a000000000000000000000000000000000000000000000000000000000815260040161072490613399565b60405180910390fd5b61073883838361157f565b505050565b6060600061077161074d846117db565b60405160200161075d919061306a565b604051602081830303815290604052611988565b90506009805490508161078491906136d3565b9050600981815481106107c0577f4e487b7100000000000000000000000000000000000000000000000000000000600052603260045260246000fd5b9060005260206000200180546107d590613658565b80601f016020809104026020016040519081016040528092919081815260200182805461080190613658565b801561084e5780601f106108235761010080835404028352916020019161084e565b820191906000526020600020905b81548152906001019060200180831161083157829003601f168201915b5050505050915050919050565b61087683838360405180602001604052806000815250610d16565b505050565b6000806002600084815260200190815260200160002060009054906101000a900473ffffffffffffffffffffffffffffffffffffffff169050600073ffffffffffffffffffffffffffffffffffffffff168173ffffffffffffffffffffffffffffffffffffffff161415610924576040517f08c379a000000000000000000000000000000000000000000000000000000000815260040161091b90613299565b60405180910390fd5b80915050919050565b60008073ffffffffffffffffffffffffffffffffffffffff168273ffffffffffffffffffffffffffffffffffffffff16141561099e576040517f08c379a000000000000000000000000000000000000000000000000000000000815260040161099590613279565b60405180910390fd5b600360008373ffffffffffffffffffffffffffffffffffffffff1673ffffffffffffffffffffffffffffffffffffffff168152602001908152602001600020549050919050565b6060600180546109f490613658565b80601f0160208091040260200160405190810160405280929190818152602001828054610a2090613658565b8015610a6d5780601f10610a4257610100808354040283529160200191610a6d565b820191906000526020600020905b815481529060010190602001808311610a5057829003601f168201915b5050505050905090565b610a7f6113d2565b73ffffffffffffffffffffffffffffffffffffffff168273ffffffffffffffffffffffffffffffffffffffff161415610aed576040517f08c379a0000000000000000000000000000000000000000000000000000000008152600401610ae490613219565b60405180910390fd5b8060056000610afa6113d2565b73ffffffffffffffffffffffffffffffffffffffff1673ffffffffffffffffffffffffffffffffffffffff16815260200190815260200160002060008473ffffffffffffffffffffffffffffffffffffffff1673ffffffffffffffffffffffffffffffffffffffff16815260200190815260200160002060006101000a81548160ff0219169083151502179055508173ffffffffffffffffffffffffffffffffffffffff16610ba76113d2565b73ffffffffffffffffffffffffffffffffffffffff167f17307eab39ab6107e8899845ad3d59bd9653f200f220920489ca2b5937696c3183604051610bec919061313e565b60405180910390a35050565b60606000610c2c610c08846117db565b604051602001610c189190613003565b604051602081830303815290604052611988565b9050600a8054905081610c3f91906136d3565b9050600a8181548110610c7b577f4e487b7100000000000000000000000000000000000000000000000000000000600052603260045260246000fd5b906000526020600020018054610c9090613658565b80601f0160208091040260200160405190810160405280929190818152602001828054610cbc90613658565b8015610d095780601f10610cde57610100808354040283529160200191610d09565b820191906000526020600020905b815481529060010190602001808311610cec57829003601f168201915b5050505050915050919050565b610d27610d216113d2565b836114a1565b610d66576040517f08c379a0000000000000000000000000000000000000000000000000000000008152600401610d5d90613399565b60405180910390fd5b610d72848484846119bb565b50505050565b60606000610dac610d88846117db565b604051602001610d989190612fe1565b604051602081830303815290604052611988565b9050600b8054905081610dbf91906136d3565b9050600b8181548110610dfb577f4e487b7100000000000000000000000000000000000000000000000000000000600052603260045260246000fd5b906000526020600020018054610e1090613658565b80601f0160208091040260200160405190810160405280929190818152602001828054610e3c90613658565b8015610e895780601f10610e5e57610100808354040283529160200191610e89565b820191906000526020600020905b815481529060010190602001808311610e6c57829003601f168201915b5050505050915050919050565b6060610ea182611366565b610ee0576040517f08c379a0000000000000000000000000000000000000000000000000000000008152600401610ed7906132f9565b60405180910390fd5b6000600660008481526020019081526020016000208054610f0090613658565b80601f0160208091040260200160405190810160405280929190818152602001828054610f2c90613658565b8015610f795780601f10610f4e57610100808354040283529160200191610f79565b820191906000526020600020905b815481529060010190602001808311610f5c57829003601f168201915b505050505090506000610f8a611a17565b9050600081511415610fa0578192505050610fe3565b600082511115610fd5578082604051602001610fbd929190612f5d565b60405160208183030381529060405292505050610fe3565b610fde84611a2e565b925050505b919050565b6000610ff46007611493565b905060006110018261073d565b9050600061100e83610bf8565b9050600061101b84610d78565b9050600083838360405160200161103493929190612f81565b6040516020818303038152906040529050600060088260405160200161105b929190612fb2565b604051602081830303815290604052905060006110a08361107b84611ad5565b60405160200161108c929190613025565b604051602081830303815290604052611ad5565b90506000816040516020016110b5919061308c565b60405160208183030381529060405290506111046040518060400160405280601581526020017f0a2d2d2d2d2d2d2d2d2d2d2d2d2d2d2d2d2d2d2d2d0000000000000000000000815250611263565b61110d81611263565b61114b6040518060400160405280601581526020017f2d2d2d2d2d2d2d2d2d2d2d2d2d2d2d2d2d2d2d2d0a0000000000000000000000815250611263565b6111553389611c93565b61115f8882611cb1565b6111696007611d25565b61118c60405180606001604052806025815260200161382e602591398933611d3b565b7febb98688741ffa4c7589bf325de30cf7becb63de567842e1ccdb6cb949fdc82c33896040516111bd929190613115565b60405180910390a15050505050505050565b6000600560008473ffffffffffffffffffffffffffffffffffffffff1673ffffffffffffffffffffffffffffffffffffffff16815260200190815260200160002060008373ffffffffffffffffffffffffffffffffffffffff1673ffffffffffffffffffffffffffffffffffffffff16815260200190815260200160002060009054906101000a900460ff16905092915050565b6112f9816040516024016112779190613159565b6040516020818303038152906040527f41304fac000000000000000000000000000000000000000000000000000000007bffffffffffffffffffffffffffffffffffffffffffffffffffffffff19166020820180517bffffffffffffffffffffffffffffffffffffffffffffffffffffffff8381831617835250505050611dda565b50565b60007f01ffc9a7000000000000000000000000000000000000000000000000000000007bffffffffffffffffffffffffffffffffffffffffffffffffffffffff1916827bffffffffffffffffffffffffffffffffffffffffffffffffffffffff1916149050919050565b60008073ffffffffffffffffffffffffffffffffffffffff166002600084815260200190815260200160002060009054906101000a900473ffffffffffffffffffffffffffffffffffffffff1673ffffffffffffffffffffffffffffffffffffffff1614159050919050565b600033905090565b816004600083815260200190815260200160002060006101000a81548173ffffffffffffffffffffffffffffffffffffffff021916908373ffffffffffffffffffffffffffffffffffffffff160217905550808273ffffffffffffffffffffffffffffffffffffffff1661144d8361087b565b73ffffffffffffffffffffffffffffffffffffffff167f8c5be1e5ebec7d5bd14f71427d1e84f3dd0314c0f7b2291e5b200ac8c7c3b92560405160405180910390a45050565b600081600001549050919050565b60006114ac82611366565b6114eb576040517f08c379a00000000000000000000000000000000000000000000000000000000081526004016114e290613239565b60405180910390fd5b60006114f68361087b565b90508073ffffffffffffffffffffffffffffffffffffffff168473ffffffffffffffffffffffffffffffffffffffff16148061156557508373ffffffffffffffffffffffffffffffffffffffff1661154d8461052f565b73ffffffffffffffffffffffffffffffffffffffff16145b80611576575061157581856111cf565b5b91505092915050565b8273ffffffffffffffffffffffffffffffffffffffff1661159f8261087b565b73ffffffffffffffffffffffffffffffffffffffff16146115f5576040517f08c379a00000000000000000000000000000000000000000000000000000000081526004016115ec90613339565b60405180910390fd5b600073ffffffffffffffffffffffffffffffffffffffff168273ffffffffffffffffffffffffffffffffffffffff161415611665576040517f08c379a000000000000000000000000000000000000000000000000000000000815260040161165c906131f9565b60405180910390fd5b611670838383611e03565b61167b6000826113da565b6001600360008573ffffffffffffffffffffffffffffffffffffffff1673ffffffffffffffffffffffffffffffffffffffff16815260200190815260200160002060008282546116cb919061356e565b925050819055506001600360008473ffffffffffffffffffffffffffffffffffffffff1673ffffffffffffffffffffffffffffffffffffffff1681526020019081526020016000206000828254611722919061348d565b92505081905550816002600083815260200190815260200160002060006101000a81548173ffffffffffffffffffffffffffffffffffffffff021916908373ffffffffffffffffffffffffffffffffffffffff160217905550808273ffffffffffffffffffffffffffffffffffffffff168473ffffffffffffffffffffffffffffffffffffffff167fddf252ad1be2c89b69c2b068fc378daa952ba7f163c4a11628f55a4df523b3ef60405160405180910390a4505050565b60606000821415611823576040518060400160405280600181526020017f30000000000000000000000000000000000000000000000000000000000000008152509050611983565b600082905060005b6000821461185557808061183e9061368a565b915050600a8261184e91906134e3565b915061182b565b60008167ffffffffffffffff811115611897577f4e487b7100000000000000000000000000000000000000000000000000000000600052604160045260246000fd5b6040519080825280601f01601f1916602001820160405280156118c95781602001600182028036833780820191505090505b5090505b6000851461197c576001826118e2919061356e565b9150600a856118f191906136d3565b60306118fd919061348d565b60f81b818381518110611939577f4e487b7100000000000000000000000000000000000000000000000000000000600052603260045260246000fd5b60200101907effffffffffffffffffffffffffffffffffffffffffffffffffffffffffffff1916908160001a905350600a8561197591906134e3565b94506118cd565b8093505050505b919050565b60008160405160200161199b9190612f46565b6040516020818303038152906040528051906020012060001c9050919050565b6119c684848461157f565b6119d284848484611e08565b611a11576040517f08c379a0000000000000000000000000000000000000000000000000000000008152600401611a08906131b9565b60405180910390fd5b50505050565b606060405180602001604052806000815250905090565b6060611a3982611366565b611a78576040517f08c379a0000000000000000000000000000000000000000000000000000000008152600401611a6f90613359565b60405180910390fd5b6000611a82611a17565b90506000815111611aa25760405180602001604052806000815250611acd565b80611aac846117db565b604051602001611abd929190612f5d565b6040516020818303038152906040525b915050919050565b60606000825190506000811415611afe5760405180602001604052806000815250915050611c8e565b60006003600283611b0f919061348d565b611b1991906134e3565b6004611b259190613514565b90506000602082611b36919061348d565b67ffffffffffffffff811115611b75577f4e487b7100000000000000000000000000000000000000000000000000000000600052604160045260246000fd5b6040519080825280601f01601f191660200182016040528015611ba75781602001600182028036833780820191505090505b5090506000604051806060016040528060408152602001613853604091399050600181016020830160005b86811015611c4b5760038101905062ffffff818a015116603f8160121c168401518060081b905060ff603f83600c1c1686015116810190508060081b905060ff603f8360061c1686015116810190508060081b905060ff603f831686015116810190508060e01b90508084526004840193505050611bd2565b506003860660018114611c655760028114611c7557611c80565b613d3d60f01b6002830352611c80565b603d60f81b60018303525b508484525050819450505050505b919050565b611cad828260405180602001604052806000815250611f9f565b5050565b611cba82611366565b611cf9576040517f08c379a0000000000000000000000000000000000000000000000000000000008152600401611cf0906132b9565b60405180910390fd5b80600660008481526020019081526020016000209080519060200190611d209291906121db565b505050565b6001816000016000828254019250508190555050565b611dd5838383604051602401611d539392919061317b565b6040516020818303038152906040527fe3849f79000000000000000000000000000000000000000000000000000000007bffffffffffffffffffffffffffffffffffffffffffffffffffffffff19166020820180517bffffffffffffffffffffffffffffffffffffffffffffffffffffffff8381831617835250505050611dda565b505050565b60008151905060006a636f6e736f6c652e6c6f679050602083016000808483855afa5050505050565b505050565b6000611e298473ffffffffffffffffffffffffffffffffffffffff16611ffa565b15611f92578373ffffffffffffffffffffffffffffffffffffffff1663150b7a02611e526113d2565b8786866040518563ffffffff1660e01b8152600401611e7494939291906130c9565b602060405180830381600087803b158015611e8e57600080fd5b505af1925050508015611ebf57506040513d601f19601f82011682018060405250810190611ebc919061251f565b60015b611f42573d8060008114611eef576040519150601f19603f3d011682016040523d82523d6000602084013e611ef4565b606091505b50600081511415611f3a576040517f08c379a0000000000000000000000000000000000000000000000000000000008152600401611f31906131b9565b60405180910390fd5b805181602001fd5b63150b7a0260e01b7bffffffffffffffffffffffffffffffffffffffffffffffffffffffff1916817bffffffffffffffffffffffffffffffffffffffffffffffffffffffff191614915050611f97565b600190505b949350505050565b611fa9838361200d565b611fb66000848484611e08565b611ff5576040517f08c379a0000000000000000000000000000000000000000000000000000000008152600401611fec906131b9565b60405180910390fd5b505050565b600080823b905060008111915050919050565b600073ffffffffffffffffffffffffffffffffffffffff168273ffffffffffffffffffffffffffffffffffffffff16141561207d576040517f08c379a0000000000000000000000000000000000000000000000000000000008152600401612074906132d9565b60405180910390fd5b61208681611366565b156120c6576040517f08c379a00000000000000000000000000000000000000000000000000000000081526004016120bd906131d9565b60405180910390fd5b6120d260008383611e03565b6001600360008473ffffffffffffffffffffffffffffffffffffffff1673ffffffffffffffffffffffffffffffffffffffff1681526020019081526020016000206000828254612122919061348d565b92505081905550816002600083815260200190815260200160002060006101000a81548173ffffffffffffffffffffffffffffffffffffffff021916908373ffffffffffffffffffffffffffffffffffffffff160217905550808273ffffffffffffffffffffffffffffffffffffffff16600073ffffffffffffffffffffffffffffffffffffffff167fddf252ad1be2c89b69c2b068fc378daa952ba7f163c4a11628f55a4df523b3ef60405160405180910390a45050565b8280546121e790613658565b90600052602060002090601f0160209004810192826122095760008555612250565b82601f1061222257805160ff1916838001178555612250565b82800160010185558215612250579182015b8281111561224f578251825591602001919060010190612234565b5b50905061225d9190612261565b5090565b5b8082111561227a576000816000905550600101612262565b5090565b600061229161228c84613405565b6133d4565b9050828152602081018484840111156122a957600080fd5b6122b4848285613616565b509392505050565b6000813590506122cb816137d1565b92915050565b6000813590506122e0816137e8565b92915050565b6000813590506122f5816137ff565b92915050565b60008151905061230a816137ff565b92915050565b600082601f83011261232157600080fd5b813561233184826020860161227e565b91505092915050565b60008135905061234981613816565b92915050565b60006020828403121561236157600080fd5b600061236f848285016122bc565b91505092915050565b6000806040838503121561238b57600080fd5b6000612399858286016122bc565b92505060206123aa858286016122bc565b9150509250929050565b6000806000606084860312156123c957600080fd5b60006123d7868287016122bc565b93505060206123e8868287016122bc565b92505060406123f98682870161233a565b9150509250925092565b6000806000806080858703121561241957600080fd5b6000612427878288016122bc565b9450506020612438878288016122bc565b93505060406124498782880161233a565b925050606085013567ffffffffffffffff81111561246657600080fd5b61247287828801612310565b91505092959194509250565b6000806040838503121561249157600080fd5b600061249f858286016122bc565b92505060206124b0858286016122d1565b9150509250929050565b600080604083850312156124cd57600080fd5b60006124db858286016122bc565b92505060206124ec8582860161233a565b9150509250929050565b60006020828403121561250857600080fd5b6000612516848285016122e6565b91505092915050565b60006020828403121561253157600080fd5b600061253f848285016122fb565b91505092915050565b60006020828403121561255a57600080fd5b60006125688482850161233a565b91505092915050565b61257a816135a2565b82525050565b612589816135b4565b82525050565b600061259a8261344a565b6125a48185613460565b93506125b4818560208601613625565b6125bd816137c0565b840191505092915050565b60006125d382613455565b6125dd8185613471565b93506125ed818560208601613625565b6125f6816137c0565b840191505092915050565b600061260c82613455565b6126168185613482565b9350612626818560208601613625565b80840191505092915050565b6000815461263f81613658565b6126498186613482565b945060018216600081146126645760018114612675576126a8565b60ff198316865281860193506126a8565b61267e85613435565b60005b838110156126a057815481890152600182019150602081019050612681565b838801955050505b50505092915050565b60006126be603283613471565b91507f4552433732313a207472616e7366657220746f206e6f6e20455243373231526560008301527f63656976657220696d706c656d656e74657200000000000000000000000000006020830152604082019050919050565b6000612724601c83613471565b91507f4552433732313a20746f6b656e20616c7265616479206d696e746564000000006000830152602082019050919050565b6000612764600a83613482565b91507f54484952445f574f5244000000000000000000000000000000000000000000006000830152600a82019050919050565b60006127a4602483613471565b91507f4552433732313a207472616e7366657220746f20746865207a65726f2061646460008301527f72657373000000000000000000000000000000000000000000000000000000006020830152604082019050919050565b600061280a601983613471565b91507f4552433732313a20617070726f766520746f2063616c6c6572000000000000006000830152602082019050919050565b600061284a600b83613482565b91507f5345434f4e445f574f52440000000000000000000000000000000000000000006000830152600b82019050919050565b600061288a602c83613471565b91507f4552433732313a206f70657261746f7220717565727920666f72206e6f6e657860008301527f697374656e7420746f6b656e00000000000000000000000000000000000000006020830152604082019050919050565b60006128f0600d83613482565b91507f3c2f746578743e3c2f7376673e000000000000000000000000000000000000006000830152600d82019050919050565b6000612930603883613471565b91507f4552433732313a20617070726f76652063616c6c6572206973206e6f74206f7760008301527f6e6572206e6f7220617070726f76656420666f7220616c6c00000000000000006020830152604082019050919050565b6000612996602a83613471565b91507f4552433732313a2062616c616e636520717565727920666f7220746865207a6560008301527f726f2061646472657373000000000000000000000000000000000000000000006020830152604082019050919050565b60006129fc602983613471565b91507f4552433732313a206f776e657220717565727920666f72206e6f6e657869737460008301527f656e7420746f6b656e00000000000000000000000000000000000000000000006020830152604082019050919050565b6000612a62602e83613471565b91507f45524337323155524953746f726167653a2055524920736574206f66206e6f6e60008301527f6578697374656e7420746f6b656e0000000000000000000000000000000000006020830152604082019050919050565b6000612ac8600283613482565b91507f227d0000000000000000000000000000000000000000000000000000000000006000830152600282019050919050565b6000612b08602083613471565b91507f4552433732313a206d696e7420746f20746865207a65726f20616464726573736000830152602082019050919050565b6000612b48608783613482565b91507f222c20226465736372697074696f6e223a20224120636f6c6c656374696f6e2060008301527f6f6620646966666572656e7420636f66666565206472696e6b732c206d61792060208301527f6e6f7420726563636f6d656e6420616c6c206f66207468656d2074686f75676860408301527f222c2022696d616765223a2022646174613a696d6167652f7376672b786d6c3b60608301527f6261736536342c000000000000000000000000000000000000000000000000006080830152608782019050919050565b6000612c20603183613471565b91507f45524337323155524953746f726167653a2055524920717565727920666f722060008301527f6e6f6e6578697374656e7420746f6b656e0000000000000000000000000000006020830152604082019050919050565b6000612c86602c83613471565b91507f4552433732313a20617070726f76656420717565727920666f72206e6f6e657860008301527f697374656e7420746f6b656e00000000000000000000000000000000000000006020830152604082019050919050565b6000612cec602983613471565b91507f4552433732313a207472616e73666572206f6620746f6b656e2074686174206960008301527f73206e6f74206f776e00000000000000000000000000000000000000000000006020830152604082019050919050565b6000612d52602f83613471565b91507f4552433732314d657461646174613a2055524920717565727920666f72206e6f60008301527f6e6578697374656e7420746f6b656e00000000000000000000000000000000006020830152604082019050919050565b6000612db8600a83613482565b91507f7b226e616d65223a2022000000000000000000000000000000000000000000006000830152600a82019050919050565b6000612df8602183613471565b91507f4552433732313a20617070726f76616c20746f2063757272656e74206f776e6560008301527f72000000000000000000000000000000000000000000000000000000000000006020830152604082019050919050565b6000612e5e600a83613482565b91507f46495253545f574f5244000000000000000000000000000000000000000000006000830152600a82019050919050565b6000612e9e601d83613482565b91507f646174613a6170706c69636174696f6e2f6a736f6e3b6261736536342c0000006000830152601d82019050919050565b6000612ede603183613471565b91507f4552433732313a207472616e736665722063616c6c6572206973206e6f74206f60008301527f776e6572206e6f7220617070726f7665640000000000000000000000000000006020830152604082019050919050565b612f408161360c565b82525050565b6000612f528284612601565b915081905092915050565b6000612f698285612601565b9150612f758284612601565b91508190509392505050565b6000612f8d8286612601565b9150612f998285612601565b9150612fa58284612601565b9150819050949350505050565b6000612fbe8285612632565b9150612fca8284612601565b9150612fd5826128e3565b91508190509392505050565b6000612fec82612757565b9150612ff88284612601565b915081905092915050565b600061300e8261283d565b915061301a8284612601565b915081905092915050565b600061303082612dab565b915061303c8285612601565b915061304782612b3b565b91506130538284612601565b915061305e82612abb565b91508190509392505050565b600061307582612e51565b91506130818284612601565b915081905092915050565b600061309782612e91565b91506130a38284612601565b915081905092915050565b60006020820190506130c36000830184612571565b92915050565b60006080820190506130de6000830187612571565b6130eb6020830186612571565b6130f86040830185612f37565b818103606083015261310a818461258f565b905095945050505050565b600060408201905061312a6000830185612571565b6131376020830184612f37565b9392505050565b60006020820190506131536000830184612580565b92915050565b6000602082019050818103600083015261317381846125c8565b905092915050565b6000606082019050818103600083015261319581866125c8565b90506131a46020830185612f37565b6131b16040830184612571565b949350505050565b600060208201905081810360008301526131d2816126b1565b9050919050565b600060208201905081810360008301526131f281612717565b9050919050565b6000602082019050818103600083015261321281612797565b9050919050565b60006020820190508181036000830152613232816127fd565b9050919050565b600060208201905081810360008301526132528161287d565b9050919050565b6000602082019050818103600083015261327281612923565b9050919050565b6000602082019050818103600083015261329281612989565b9050919050565b600060208201905081810360008301526132b2816129ef565b9050919050565b600060208201905081810360008301526132d281612a55565b9050919050565b600060208201905081810360008301526132f281612afb565b9050919050565b6000602082019050818103600083015261331281612c13565b9050919050565b6000602082019050818103600083015261333281612c79565b9050919050565b6000602082019050818103600083015261335281612cdf565b9050919050565b6000602082019050818103600083015261337281612d45565b9050919050565b6000602082019050818103600083015261339281612deb565b9050919050565b600060208201905081810360008301526133b281612ed1565b9050919050565b60006020820190506133ce6000830184612f37565b92915050565b6000604051905081810181811067ffffffffffffffff821117156133fb576133fa613791565b5b8060405250919050565b600067ffffffffffffffff8211156134205761341f613791565b5b601f19601f8301169050602081019050919050565b60008190508160005260206000209050919050565b600081519050919050565b600081519050919050565b600082825260208201905092915050565b600082825260208201905092915050565b600081905092915050565b60006134988261360c565b91506134a38361360c565b9250827fffffffffffffffffffffffffffffffffffffffffffffffffffffffffffffffff038211156134d8576134d7613704565b5b828201905092915050565b60006134ee8261360c565b91506134f98361360c565b92508261350957613508613733565b5b828204905092915050565b600061351f8261360c565b915061352a8361360c565b9250817fffffffffffffffffffffffffffffffffffffffffffffffffffffffffffffffff048311821515161561356357613562613704565b5b828202905092915050565b60006135798261360c565b91506135848361360c565b92508282101561359757613596613704565b5b828203905092915050565b60006135ad826135ec565b9050919050565b60008115159050919050565b60007fffffffff0000000000000000000000000000000000000000000000000000000082169050919050565b600073ffffffffffffffffffffffffffffffffffffffff82169050919050565b6000819050919050565b82818337600083830152505050565b60005b83811015613643578082015181840152602081019050613628565b83811115613652576000848401525b50505050565b6000600282049050600182168061367057607f821691505b6020821081141561368457613683613762565b5b50919050565b60006136958261360c565b91507fffffffffffffffffffffffffffffffffffffffffffffffffffffffffffffffff8214156136c8576136c7613704565b5b600182019050919050565b60006136de8261360c565b91506136e98361360c565b9250826136f9576136f8613733565b5b828206905092915050565b7f4e487b7100000000000000000000000000000000000000000000000000000000600052601160045260246000fd5b7f4e487b7100000000000000000000000000000000000000000000000000000000600052601260045260246000fd5b7f4e487b7100000000000000000000000000000000000000000000000000000000600052602260045260246000fd5b7f4e487b7100000000000000000000000000000000000000000000000000000000600052604160045260246000fd5b6000601f19601f8301169050919050565b6137da816135a2565b81146137e557600080fd5b50565b6137f1816135b4565b81146137fc57600080fd5b50565b613808816135c0565b811461381357600080fd5b50565b61381f8161360c565b811461382a57600080fd5b5056fe416e204e465420772f20494420257320686173206265656e206d696e74656420746f2025734142434445464748494a4b4c4d4e4f505152535455565758595a6162636465666768696a6b6c6d6e6f707172737475767778797a303132333435363738392b2fa26469706673582212205207d5b4f3486aebf6529e2c74c9e074495800b36d5e23f2249ba67893ec9cb364736f6c634300080000333c73766720786d6c6e733d27687474703a2f2f7777772e77332e6f72672f323030302f73766727207072657365727665417370656374526174696f3d27784d696e594d696e206d656574272076696577426f783d273020302033353020333530273e3c7374796c653e2e62617365207b2066696c6c3a20233833333932313b20666f6e742d66616d696c793a2047656f726769612c2073657269663b20666f6e742d73697a653a20323470783b207d3c2f7374796c653e3c726563742077696474683d273130302527206865696768743d2731303025272066696c6c3d272345444536444527202f3e3c7465787420783d273530252720793d273530252720636c6173733d27626173652720646f6d696e616e742d626173656c696e653d276d6964646c652720746578742d616e63686f723d276d6964646c65273e",
  "linkReferences": {},
  "deployedLinkReferences": {}
}