{
  "_format": "hh-sol-artifact-1",
  "contractName": "CoffeeNFT",
  "sourceName": "contracts/CoffeeNFT.sol",
  "abi": [
    {
      "inputs": [],
      "stateMutability": "nonpayable",
      "type": "constructor"
    },
    {
      "anonymous": false,
      "inputs": [
        {
          "indexed": true,
          "internalType": "address",
          "name": "owner",
          "type": "address"
        },
        {
          "indexed": true,
          "internalType": "address",
          "name": "approved",
          "type": "address"
        },
        {
          "indexed": true,
          "internalType": "uint256",
          "name": "tokenId",
          "type": "uint256"
        }
      ],
      "name": "Approval",
      "type": "event"
    },
    {
      "anonymous": false,
      "inputs": [
        {
          "indexed": true,
          "internalType": "address",
          "name": "owner",
          "type": "address"
        },
        {
          "indexed": true,
          "internalType": "address",
          "name": "operator",
          "type": "address"
        },
        {
          "indexed": false,
          "internalType": "bool",
          "name": "approved",
          "type": "bool"
        }
      ],
      "name": "ApprovalForAll",
      "type": "event"
    },
    {
      "anonymous": false,
      "inputs": [
        {
          "indexed": false,
          "internalType": "address",
          "name": "sender",
          "type": "address"
        },
        {
          "indexed": false,
          "internalType": "uint256",
          "name": "tokenId",
          "type": "uint256"
        }
      ],
      "name": "NewEpicNFTMinted",
      "type": "event"
    },
    {
      "anonymous": false,
      "inputs": [
        {
          "indexed": true,
          "internalType": "address",
          "name": "from",
          "type": "address"
        },
        {
          "indexed": true,
          "internalType": "address",
          "name": "to",
          "type": "address"
        },
        {
          "indexed": true,
          "internalType": "uint256",
          "name": "tokenId",
          "type": "uint256"
        }
      ],
      "name": "Transfer",
      "type": "event"
    },
    {
      "inputs": [
        {
          "internalType": "address",
          "name": "to",
          "type": "address"
        },
        {
          "internalType": "uint256",
          "name": "tokenId",
          "type": "uint256"
        }
      ],
      "name": "approve",
      "outputs": [],
      "stateMutability": "nonpayable",
      "type": "function"
    },
    {
      "inputs": [
        {
          "internalType": "address",
          "name": "owner",
          "type": "address"
        }
      ],
      "name": "balanceOf",
      "outputs": [
        {
          "internalType": "uint256",
          "name": "",
          "type": "uint256"
        }
      ],
      "stateMutability": "view",
      "type": "function"
    },
    {
      "inputs": [
        {
          "internalType": "uint256",
          "name": "tokenId",
          "type": "uint256"
        }
      ],
      "name": "getApproved",
      "outputs": [
        {
          "internalType": "address",
          "name": "",
          "type": "address"
        }
      ],
      "stateMutability": "view",
      "type": "function"
    },
    {
      "inputs": [],
      "name": "getTotalMinted",
      "outputs": [
        {
          "internalType": "uint256",
          "name": "",
          "type": "uint256"
        }
      ],
      "stateMutability": "view",
      "type": "function"
    },
    {
      "inputs": [
        {
          "internalType": "address",
          "name": "owner",
          "type": "address"
        },
        {
          "internalType": "address",
          "name": "operator",
          "type": "address"
        }
      ],
      "name": "isApprovedForAll",
      "outputs": [
        {
          "internalType": "bool",
          "name": "",
          "type": "bool"
        }
      ],
      "stateMutability": "view",
      "type": "function"
    },
    {
      "inputs": [],
      "name": "makeAnEpicNFT",
      "outputs": [],
      "stateMutability": "nonpayable",
      "type": "function"
    },
    {
      "inputs": [],
      "name": "name",
      "outputs": [
        {
          "internalType": "string",
          "name": "",
          "type": "string"
        }
      ],
      "stateMutability": "view",
      "type": "function"
    },
    {
      "inputs": [
        {
          "internalType": "uint256",
          "name": "tokenId",
          "type": "uint256"
        }
      ],
      "name": "ownerOf",
      "outputs": [
        {
          "internalType": "address",
          "name": "",
          "type": "address"
        }
      ],
      "stateMutability": "view",
      "type": "function"
    },
    {
      "inputs": [
        {
          "internalType": "address",
          "name": "from",
          "type": "address"
        },
        {
          "internalType": "address",
          "name": "to",
          "type": "address"
        },
        {
          "internalType": "uint256",
          "name": "tokenId",
          "type": "uint256"
        }
      ],
      "name": "safeTransferFrom",
      "outputs": [],
      "stateMutability": "nonpayable",
      "type": "function"
    },
    {
      "inputs": [
        {
          "internalType": "address",
          "name": "from",
          "type": "address"
        },
        {
          "internalType": "address",
          "name": "to",
          "type": "address"
        },
        {
          "internalType": "uint256",
          "name": "tokenId",
          "type": "uint256"
        },
        {
          "internalType": "bytes",
          "name": "_data",
          "type": "bytes"
        }
      ],
      "name": "safeTransferFrom",
      "outputs": [],
      "stateMutability": "nonpayable",
      "type": "function"
    },
    {
      "inputs": [
        {
          "internalType": "address",
          "name": "operator",
          "type": "address"
        },
        {
          "internalType": "bool",
          "name": "approved",
          "type": "bool"
        }
      ],
      "name": "setApprovalForAll",
      "outputs": [],
      "stateMutability": "nonpayable",
      "type": "function"
    },
    {
      "inputs": [
        {
          "internalType": "bytes4",
          "name": "interfaceId",
          "type": "bytes4"
        }
      ],
      "name": "supportsInterface",
      "outputs": [
        {
          "internalType": "bool",
          "name": "",
          "type": "bool"
        }
      ],
      "stateMutability": "view",
      "type": "function"
    },
    {
      "inputs": [],
      "name": "symbol",
      "outputs": [
        {
          "internalType": "string",
          "name": "",
          "type": "string"
        }
      ],
      "stateMutability": "view",
      "type": "function"
    },
    {
      "inputs": [
        {
          "internalType": "uint256",
          "name": "tokenId",
          "type": "uint256"
        }
      ],
      "name": "tokenURI",
      "outputs": [
        {
          "internalType": "string",
          "name": "",
          "type": "string"
        }
      ],
      "stateMutability": "view",
      "type": "function"
    },
    {
      "inputs": [
        {
          "internalType": "address",
          "name": "from",
          "type": "address"
        },
        {
          "internalType": "address",
          "name": "to",
          "type": "address"
        },
        {
          "internalType": "uint256",
          "name": "tokenId",
          "type": "uint256"
        }
      ],
      "name": "transferFrom",
      "outputs": [],
      "stateMutability": "nonpayable",
      "type": "function"
    }
  ],
  "bytecode": "0x608060405260326008553480156200001657600080fd5b506040518060400160405280600e81526020017f43727970746f20436f66666565730000000000000000000000000000000000008152506040518060400160405280600d81526020017f43525950544f434f46464545530000000000000000000000000000000000000081525081600090805190602001906200009b929190620001d4565b508060019080519060200190620000b4929190620001d4565b505050620001026040518060400160405280601f81526020017f54686973206973206d7920436f66666565204e465420636f6e747261637421008152506200010860201b62000de81760201c565b620003b1565b620001a8816040516024016200011f9190620002c5565b6040516020818303038152906040527f41304fac000000000000000000000000000000000000000000000000000000007bffffffffffffffffffffffffffffffffffffffffffffffffffffffff19166020820180517bffffffffffffffffffffffffffffffffffffffffffffffffffffffff8381831617835250505050620001ab60201b60201c565b50565b60008151905060006a636f6e736f6c652e6c6f679050602083016000808483855afa5050505050565b828054620001e2906200033b565b90600052602060002090601f01602090048101928262000206576000855562000252565b82601f106200022157805160ff191683800117855562000252565b8280016001018555821562000252579182015b828111156200025157825182559160200191906001019062000234565b5b50905062000261919062000265565b5090565b5b808211156200028057600081600090555060010162000266565b5090565b60006200029182620002e9565b6200029d8185620002f4565b9350620002af81856020860162000305565b620002ba81620003a0565b840191505092915050565b60006020820190508181036000830152620002e1818462000284565b905092915050565b600081519050919050565b600082825260208201905092915050565b60005b838110156200032557808201518184015260208101905062000308565b8381111562000335576000848401525b50505050565b600060028204905060018216806200035457607f821691505b602082108114156200036b576200036a62000371565b5b50919050565b7f4e487b7100000000000000000000000000000000000000000000000000000000600052602260045260246000fd5b6000601f19601f8301169050919050565b612f6180620003c16000396000f3fe608060405234801561001057600080fd5b50600436106100f55760003560e01c80636352211e11610097578063b88d4fde11610066578063b88d4fde14610284578063c87b56dd146102a0578063de9d132f146102d0578063e985e9c5146102da576100f5565b80636352211e146101ea57806370a082311461021a57806395d89b411461024a578063a22cb46514610268576100f5565b8063095ea7b3116100d3578063095ea7b3146101785780630ca1c5c91461019457806323b872dd146101b257806342842e0e146101ce576100f5565b806301ffc9a7146100fa57806306fdde031461012a578063081812fc14610148575b600080fd5b610114600480360381019061010f9190611e8a565b61030a565b6040516101219190612866565b60405180910390f35b6101326103ec565b60405161013f9190612881565b60405180910390f35b610162600480360381019061015d9190611edc565b61047e565b60405161016f91906127d6565b60405180910390f35b610192600480360381019061018d9190611e4e565b610503565b005b61019c61061b565b6040516101a99190612b01565b60405180910390f35b6101cc60048036038101906101c79190611d48565b61062c565b005b6101e860048036038101906101e39190611d48565b61068c565b005b61020460048036038101906101ff9190611edc565b6106ac565b60405161021191906127d6565b60405180910390f35b610234600480360381019061022f9190611ce3565b61075e565b6040516102419190612b01565b60405180910390f35b610252610816565b60405161025f9190612881565b60405180910390f35b610282600480360381019061027d9190611e12565b6108a8565b005b61029e60048036038101906102999190611d97565b610a29565b005b6102ba60048036038101906102b59190611edc565b610a8b565b6040516102c79190612881565b60405180910390f35b6102d8610bdd565b005b6102f460048036038101906102ef9190611d0c565b610d54565b6040516103019190612866565b60405180910390f35b60007f80ac58cd000000000000000000000000000000000000000000000000000000007bffffffffffffffffffffffffffffffffffffffffffffffffffffffff1916827bffffffffffffffffffffffffffffffffffffffffffffffffffffffff191614806103d557507f5b5e139f000000000000000000000000000000000000000000000000000000007bffffffffffffffffffffffffffffffffffffffffffffffffffffffff1916827bffffffffffffffffffffffffffffffffffffffffffffffffffffffff1916145b806103e557506103e482610e81565b5b9050919050565b6060600080546103fb90612d31565b80601f016020809104026020016040519081016040528092919081815260200182805461042790612d31565b80156104745780601f1061044957610100808354040283529160200191610474565b820191906000526020600020905b81548152906001019060200180831161045757829003601f168201915b5050505050905090565b600061048982610eeb565b6104c8576040517f08c379a00000000000000000000000000000000000000000000000000000000081526004016104bf90612a61565b60405180910390fd5b6004600083815260200190815260200160002060009054906101000a900473ffffffffffffffffffffffffffffffffffffffff169050919050565b600061050e826106ac565b90508073ffffffffffffffffffffffffffffffffffffffff168373ffffffffffffffffffffffffffffffffffffffff16141561057f576040517f08c379a000000000000000000000000000000000000000000000000000000000815260040161057690612ac1565b60405180910390fd5b8073ffffffffffffffffffffffffffffffffffffffff1661059e610f57565b73ffffffffffffffffffffffffffffffffffffffff1614806105cd57506105cc816105c7610f57565b610d54565b5b61060c576040517f08c379a000000000000000000000000000000000000000000000000000000000815260040161060390612981565b60405180910390fd5b6106168383610f5f565b505050565b60006106276007611018565b905090565b61063d610637610f57565b82611026565b61067c576040517f08c379a000000000000000000000000000000000000000000000000000000000815260040161067390612ae1565b60405180910390fd5b610687838383611104565b505050565b6106a783838360405180602001604052806000815250610a29565b505050565b6000806002600084815260200190815260200160002060009054906101000a900473ffffffffffffffffffffffffffffffffffffffff169050600073ffffffffffffffffffffffffffffffffffffffff168173ffffffffffffffffffffffffffffffffffffffff161415610755576040517f08c379a000000000000000000000000000000000000000000000000000000000815260040161074c906129c1565b60405180910390fd5b80915050919050565b60008073ffffffffffffffffffffffffffffffffffffffff168273ffffffffffffffffffffffffffffffffffffffff1614156107cf576040517f08c379a00000000000000000000000000000000000000000000000000000000081526004016107c6906129a1565b60405180910390fd5b600360008373ffffffffffffffffffffffffffffffffffffffff1673ffffffffffffffffffffffffffffffffffffffff168152602001908152602001600020549050919050565b60606001805461082590612d31565b80601f016020809104026020016040519081016040528092919081815260200182805461085190612d31565b801561089e5780601f106108735761010080835404028352916020019161089e565b820191906000526020600020905b81548152906001019060200180831161088157829003601f168201915b5050505050905090565b6108b0610f57565b73ffffffffffffffffffffffffffffffffffffffff168273ffffffffffffffffffffffffffffffffffffffff16141561091e576040517f08c379a000000000000000000000000000000000000000000000000000000000815260040161091590612941565b60405180910390fd5b806005600061092b610f57565b73ffffffffffffffffffffffffffffffffffffffff1673ffffffffffffffffffffffffffffffffffffffff16815260200190815260200160002060008473ffffffffffffffffffffffffffffffffffffffff1673ffffffffffffffffffffffffffffffffffffffff16815260200190815260200160002060006101000a81548160ff0219169083151502179055508173ffffffffffffffffffffffffffffffffffffffff166109d8610f57565b73ffffffffffffffffffffffffffffffffffffffff167f17307eab39ab6107e8899845ad3d59bd9653f200f220920489ca2b5937696c3183604051610a1d9190612866565b60405180910390a35050565b610a3a610a34610f57565b83611026565b610a79576040517f08c379a0000000000000000000000000000000000000000000000000000000008152600401610a7090612ae1565b60405180910390fd5b610a8584848484611360565b50505050565b6060610a9682610eeb565b610ad5576040517f08c379a0000000000000000000000000000000000000000000000000000000008152600401610acc90612a41565b60405180910390fd5b6000600660008481526020019081526020016000208054610af590612d31565b80601f0160208091040260200160405190810160405280929190818152602001828054610b2190612d31565b8015610b6e5780601f10610b4357610100808354040283529160200191610b6e565b820191906000526020600020905b815481529060010190602001808311610b5157829003601f168201915b505050505090506000610b7f6113bc565b9050600081511415610b95578192505050610bd8565b600082511115610bca578082604051602001610bb292919061279d565b60405160208183030381529060405292505050610bd8565b610bd3846113d3565b925050505b919050565b6000610be96007611018565b90506008548110610c2f576040517f08c379a0000000000000000000000000000000000000000000000000000000008152600401610c2690612a21565b60405180910390fd5b6000604051602001610c40906127c1565b6040516020818303038152906040529050610c8f6040518060400160405280601581526020017f0a2d2d2d2d2d2d2d2d2d2d2d2d2d2d2d2d2d2d2d2d0000000000000000000000815250610de8565b610c9881610de8565b610cd66040518060400160405280601581526020017f2d2d2d2d2d2d2d2d2d2d2d2d2d2d2d2d2d2d2d2d0a0000000000000000000000815250610de8565b610ce0338361147a565b610cea8282611498565b610cf4600761150c565b610d17604051806060016040528060258152602001612f07602591398333611522565b7febb98688741ffa4c7589bf325de30cf7becb63de567842e1ccdb6cb949fdc82c3383604051610d4892919061283d565b60405180910390a15050565b6000600560008473ffffffffffffffffffffffffffffffffffffffff1673ffffffffffffffffffffffffffffffffffffffff16815260200190815260200160002060008373ffffffffffffffffffffffffffffffffffffffff1673ffffffffffffffffffffffffffffffffffffffff16815260200190815260200160002060009054906101000a900460ff16905092915050565b610e7e81604051602401610dfc9190612881565b6040516020818303038152906040527f41304fac000000000000000000000000000000000000000000000000000000007bffffffffffffffffffffffffffffffffffffffffffffffffffffffff19166020820180517bffffffffffffffffffffffffffffffffffffffffffffffffffffffff83818316178352505050506115c1565b50565b60007f01ffc9a7000000000000000000000000000000000000000000000000000000007bffffffffffffffffffffffffffffffffffffffffffffffffffffffff1916827bffffffffffffffffffffffffffffffffffffffffffffffffffffffff1916149050919050565b60008073ffffffffffffffffffffffffffffffffffffffff166002600084815260200190815260200160002060009054906101000a900473ffffffffffffffffffffffffffffffffffffffff1673ffffffffffffffffffffffffffffffffffffffff1614159050919050565b600033905090565b816004600083815260200190815260200160002060006101000a81548173ffffffffffffffffffffffffffffffffffffffff021916908373ffffffffffffffffffffffffffffffffffffffff160217905550808273ffffffffffffffffffffffffffffffffffffffff16610fd2836106ac565b73ffffffffffffffffffffffffffffffffffffffff167f8c5be1e5ebec7d5bd14f71427d1e84f3dd0314c0f7b2291e5b200ac8c7c3b92560405160405180910390a45050565b600081600001549050919050565b600061103182610eeb565b611070576040517f08c379a000000000000000000000000000000000000000000000000000000000815260040161106790612961565b60405180910390fd5b600061107b836106ac565b90508073ffffffffffffffffffffffffffffffffffffffff168473ffffffffffffffffffffffffffffffffffffffff1614806110ea57508373ffffffffffffffffffffffffffffffffffffffff166110d28461047e565b73ffffffffffffffffffffffffffffffffffffffff16145b806110fb57506110fa8185610d54565b5b91505092915050565b8273ffffffffffffffffffffffffffffffffffffffff16611124826106ac565b73ffffffffffffffffffffffffffffffffffffffff161461117a576040517f08c379a000000000000000000000000000000000000000000000000000000000815260040161117190612a81565b60405180910390fd5b600073ffffffffffffffffffffffffffffffffffffffff168273ffffffffffffffffffffffffffffffffffffffff1614156111ea576040517f08c379a00000000000000000000000000000000000000000000000000000000081526004016111e190612921565b60405180910390fd5b6111f58383836115ea565b611200600082610f5f565b6001600360008573ffffffffffffffffffffffffffffffffffffffff1673ffffffffffffffffffffffffffffffffffffffff16815260200190815260200160002060008282546112509190612c47565b925050819055506001600360008473ffffffffffffffffffffffffffffffffffffffff1673ffffffffffffffffffffffffffffffffffffffff16815260200190815260200160002060008282546112a79190612bc0565b92505081905550816002600083815260200190815260200160002060006101000a81548173ffffffffffffffffffffffffffffffffffffffff021916908373ffffffffffffffffffffffffffffffffffffffff160217905550808273ffffffffffffffffffffffffffffffffffffffff168473ffffffffffffffffffffffffffffffffffffffff167fddf252ad1be2c89b69c2b068fc378daa952ba7f163c4a11628f55a4df523b3ef60405160405180910390a4505050565b61136b848484611104565b611377848484846115ef565b6113b6576040517f08c379a00000000000000000000000000000000000000000000000000000000081526004016113ad906128e1565b60405180910390fd5b50505050565b606060405180602001604052806000815250905090565b60606113de82610eeb565b61141d576040517f08c379a000000000000000000000000000000000000000000000000000000000815260040161141490612aa1565b60405180910390fd5b60006114276113bc565b905060008151116114475760405180602001604052806000815250611472565b8061145184611786565b60405160200161146292919061279d565b6040516020818303038152906040525b915050919050565b611494828260405180602001604052806000815250611933565b5050565b6114a182610eeb565b6114e0576040517f08c379a00000000000000000000000000000000000000000000000000000000081526004016114d7906129e1565b60405180910390fd5b80600660008481526020019081526020016000209080519060200190611507929190611b6f565b505050565b6001816000016000828254019250508190555050565b6115bc83838360405160240161153a939291906128a3565b6040516020818303038152906040527fe3849f79000000000000000000000000000000000000000000000000000000007bffffffffffffffffffffffffffffffffffffffffffffffffffffffff19166020820180517bffffffffffffffffffffffffffffffffffffffffffffffffffffffff83818316178352505050506115c1565b505050565b60008151905060006a636f6e736f6c652e6c6f679050602083016000808483855afa5050505050565b505050565b60006116108473ffffffffffffffffffffffffffffffffffffffff1661198e565b15611779578373ffffffffffffffffffffffffffffffffffffffff1663150b7a02611639610f57565b8786866040518563ffffffff1660e01b815260040161165b94939291906127f1565b602060405180830381600087803b15801561167557600080fd5b505af19250505080156116a657506040513d601f19601f820116820180604052508101906116a39190611eb3565b60015b611729573d80600081146116d6576040519150601f19603f3d011682016040523d82523d6000602084013e6116db565b606091505b50600081511415611721576040517f08c379a0000000000000000000000000000000000000000000000000000000008152600401611718906128e1565b60405180910390fd5b805181602001fd5b63150b7a0260e01b7bffffffffffffffffffffffffffffffffffffffffffffffffffffffff1916817bffffffffffffffffffffffffffffffffffffffffffffffffffffffff19161491505061177e565b600190505b949350505050565b606060008214156117ce576040518060400160405280600181526020017f3000000000000000000000000000000000000000000000000000000000000000815250905061192e565b600082905060005b600082146118005780806117e990612d63565b915050600a826117f99190612c16565b91506117d6565b60008167ffffffffffffffff811115611842577f4e487b7100000000000000000000000000000000000000000000000000000000600052604160045260246000fd5b6040519080825280601f01601f1916602001820160405280156118745781602001600182028036833780820191505090505b5090505b600085146119275760018261188d9190612c47565b9150600a8561189c9190612dac565b60306118a89190612bc0565b60f81b8183815181106118e4577f4e487b7100000000000000000000000000000000000000000000000000000000600052603260045260246000fd5b60200101907effffffffffffffffffffffffffffffffffffffffffffffffffffffffffffff1916908160001a905350600a856119209190612c16565b9450611878565b8093505050505b919050565b61193d83836119a1565b61194a60008484846115ef565b611989576040517f08c379a0000000000000000000000000000000000000000000000000000000008152600401611980906128e1565b60405180910390fd5b505050565b600080823b905060008111915050919050565b600073ffffffffffffffffffffffffffffffffffffffff168273ffffffffffffffffffffffffffffffffffffffff161415611a11576040517f08c379a0000000000000000000000000000000000000000000000000000000008152600401611a0890612a01565b60405180910390fd5b611a1a81610eeb565b15611a5a576040517f08c379a0000000000000000000000000000000000000000000000000000000008152600401611a5190612901565b60405180910390fd5b611a66600083836115ea565b6001600360008473ffffffffffffffffffffffffffffffffffffffff1673ffffffffffffffffffffffffffffffffffffffff1681526020019081526020016000206000828254611ab69190612bc0565b92505081905550816002600083815260200190815260200160002060006101000a81548173ffffffffffffffffffffffffffffffffffffffff021916908373ffffffffffffffffffffffffffffffffffffffff160217905550808273ffffffffffffffffffffffffffffffffffffffff16600073ffffffffffffffffffffffffffffffffffffffff167fddf252ad1be2c89b69c2b068fc378daa952ba7f163c4a11628f55a4df523b3ef60405160405180910390a45050565b828054611b7b90612d31565b90600052602060002090601f016020900481019282611b9d5760008555611be4565b82601f10611bb657805160ff1916838001178555611be4565b82800160010185558215611be4579182015b82811115611be3578251825591602001919060010190611bc8565b5b509050611bf19190611bf5565b5090565b5b80821115611c0e576000816000905550600101611bf6565b5090565b6000611c25611c2084612b4d565b612b1c565b905082815260208101848484011115611c3d57600080fd5b611c48848285612cef565b509392505050565b600081359050611c5f81612eaa565b92915050565b600081359050611c7481612ec1565b92915050565b600081359050611c8981612ed8565b92915050565b600081519050611c9e81612ed8565b92915050565b600082601f830112611cb557600080fd5b8135611cc5848260208601611c12565b91505092915050565b600081359050611cdd81612eef565b92915050565b600060208284031215611cf557600080fd5b6000611d0384828501611c50565b91505092915050565b60008060408385031215611d1f57600080fd5b6000611d2d85828601611c50565b9250506020611d3e85828601611c50565b9150509250929050565b600080600060608486031215611d5d57600080fd5b6000611d6b86828701611c50565b9350506020611d7c86828701611c50565b9250506040611d8d86828701611cce565b9150509250925092565b60008060008060808587031215611dad57600080fd5b6000611dbb87828801611c50565b9450506020611dcc87828801611c50565b9350506040611ddd87828801611cce565b925050606085013567ffffffffffffffff811115611dfa57600080fd5b611e0687828801611ca4565b91505092959194509250565b60008060408385031215611e2557600080fd5b6000611e3385828601611c50565b9250506020611e4485828601611c65565b9150509250929050565b60008060408385031215611e6157600080fd5b6000611e6f85828601611c50565b9250506020611e8085828601611cce565b9150509250929050565b600060208284031215611e9c57600080fd5b6000611eaa84828501611c7a565b91505092915050565b600060208284031215611ec557600080fd5b6000611ed384828501611c8f565b91505092915050565b600060208284031215611eee57600080fd5b6000611efc84828501611cce565b91505092915050565b611f0e81612c7b565b82525050565b611f1d81612c8d565b82525050565b6000611f2e82612b7d565b611f388185612b93565b9350611f48818560208601612cfe565b611f5181612e99565b840191505092915050565b6000611f6782612b88565b611f718185612ba4565b9350611f81818560208601612cfe565b611f8a81612e99565b840191505092915050565b6000611fa082612b88565b611faa8185612bb5565b9350611fba818560208601612cfe565b80840191505092915050565b6000611fd3603283612ba4565b91507f4552433732313a207472616e7366657220746f206e6f6e20455243373231526560008301527f63656976657220696d706c656d656e74657200000000000000000000000000006020830152604082019050919050565b6000612039601c83612ba4565b91507f4552433732313a20746f6b656e20616c7265616479206d696e746564000000006000830152602082019050919050565b6000612079602483612ba4565b91507f4552433732313a207472616e7366657220746f20746865207a65726f2061646460008301527f72657373000000000000000000000000000000000000000000000000000000006020830152604082019050919050565b60006120df601983612ba4565b91507f4552433732313a20617070726f766520746f2063616c6c6572000000000000006000830152602082019050919050565b600061211f602c83612ba4565b91507f4552433732313a206f70657261746f7220717565727920666f72206e6f6e657860008301527f697374656e7420746f6b656e00000000000000000000000000000000000000006020830152604082019050919050565b6000612185603883612ba4565b91507f4552433732313a20617070726f76652063616c6c6572206973206e6f74206f7760008301527f6e6572206e6f7220617070726f76656420666f7220616c6c00000000000000006020830152604082019050919050565b60006121eb602a83612ba4565b91507f4552433732313a2062616c616e636520717565727920666f7220746865207a6560008301527f726f2061646472657373000000000000000000000000000000000000000000006020830152604082019050919050565b6000612251602983612ba4565b91507f4552433732313a206f776e657220717565727920666f72206e6f6e657869737460008301527f656e7420746f6b656e00000000000000000000000000000000000000000000006020830152604082019050919050565b60006122b7602e83612ba4565b91507f45524337323155524953746f726167653a2055524920736574206f66206e6f6e60008301527f6578697374656e7420746f6b656e0000000000000000000000000000000000006020830152604082019050919050565b600061231d602083612ba4565b91507f4552433732313a206d696e7420746f20746865207a65726f20616464726573736000830152602082019050919050565b600061235d601c83612ba4565b91507f4d617820746f6b656e7320686176652062656562206d696e7465642e000000006000830152602082019050919050565b600061239d603183612ba4565b91507f45524337323155524953746f726167653a2055524920717565727920666f722060008301527f6e6f6e6578697374656e7420746f6b656e0000000000000000000000000000006020830152604082019050919050565b6000612403602c83612ba4565b91507f4552433732313a20617070726f76656420717565727920666f72206e6f6e657860008301527f697374656e7420746f6b656e00000000000000000000000000000000000000006020830152604082019050919050565b6000612469602983612ba4565b91507f4552433732313a207472616e73666572206f6620746f6b656e2074686174206960008301527f73206e6f74206f776e00000000000000000000000000000000000000000000006020830152604082019050919050565b60006124cf602f83612ba4565b91507f4552433732314d657461646174613a2055524920717565727920666f72206e6f60008301527f6e6578697374656e7420746f6b656e00000000000000000000000000000000006020830152604082019050919050565b6000612535602183612ba4565b91507f4552433732313a20617070726f76616c20746f2063757272656e74206f776e6560008301527f72000000000000000000000000000000000000000000000000000000000000006020830152604082019050919050565b600061259b603183612ba4565b91507f4552433732313a207472616e736665722063616c6c6572206973206e6f74206f60008301527f776e6572206e6f7220617070726f7665640000000000000000000000000000006020830152604082019050919050565b600061260261012583612bb5565b91507f646174613a6170706c69636174696f6e2f6a736f6e3b6261736536342c65776f60008301527f6749434167496d3568625755694f69416951334a356348527649454e765a6d5a60208301527f6c5a53497343694167494341695a47567a59334a7063485270623234694f694160408301527f695153424462325a6d5a5755676257466b5a534269655342756279427664476860608301527f6c63694230614746754948526f5a53424f526c5167516d467961584e3059534960808301527f734369416749434169615731685a3255694f6941696148523063484d364c793960a08301527f6e5958526c643246354c6e4270626d46305953356a624739315a43397063475a60c08301527f7a4c3146745957317a625556476357647a655756355a325a3253444a524d337060e08301527f6e556c5a4c5655357151584a48556d6c33576b6435576c6b345745704e5131676101008301527f69436e303d00000000000000000000000000000000000000000000000000000061012083015261012582019050919050565b61279781612ce5565b82525050565b60006127a98285611f95565b91506127b58284611f95565b91508190509392505050565b60006127cc826125f4565b9150819050919050565b60006020820190506127eb6000830184611f05565b92915050565b60006080820190506128066000830187611f05565b6128136020830186611f05565b612820604083018561278e565b81810360608301526128328184611f23565b905095945050505050565b60006040820190506128526000830185611f05565b61285f602083018461278e565b9392505050565b600060208201905061287b6000830184611f14565b92915050565b6000602082019050818103600083015261289b8184611f5c565b905092915050565b600060608201905081810360008301526128bd8186611f5c565b90506128cc602083018561278e565b6128d96040830184611f05565b949350505050565b600060208201905081810360008301526128fa81611fc6565b9050919050565b6000602082019050818103600083015261291a8161202c565b9050919050565b6000602082019050818103600083015261293a8161206c565b9050919050565b6000602082019050818103600083015261295a816120d2565b9050919050565b6000602082019050818103600083015261297a81612112565b9050919050565b6000602082019050818103600083015261299a81612178565b9050919050565b600060208201905081810360008301526129ba816121de565b9050919050565b600060208201905081810360008301526129da81612244565b9050919050565b600060208201905081810360008301526129fa816122aa565b9050919050565b60006020820190508181036000830152612a1a81612310565b9050919050565b60006020820190508181036000830152612a3a81612350565b9050919050565b60006020820190508181036000830152612a5a81612390565b9050919050565b60006020820190508181036000830152612a7a816123f6565b9050919050565b60006020820190508181036000830152612a9a8161245c565b9050919050565b60006020820190508181036000830152612aba816124c2565b9050919050565b60006020820190508181036000830152612ada81612528565b9050919050565b60006020820190508181036000830152612afa8161258e565b9050919050565b6000602082019050612b16600083018461278e565b92915050565b6000604051905081810181811067ffffffffffffffff82111715612b4357612b42612e6a565b5b8060405250919050565b600067ffffffffffffffff821115612b6857612b67612e6a565b5b601f19601f8301169050602081019050919050565b600081519050919050565b600081519050919050565b600082825260208201905092915050565b600082825260208201905092915050565b600081905092915050565b6000612bcb82612ce5565b9150612bd683612ce5565b9250827fffffffffffffffffffffffffffffffffffffffffffffffffffffffffffffffff03821115612c0b57612c0a612ddd565b5b828201905092915050565b6000612c2182612ce5565b9150612c2c83612ce5565b925082612c3c57612c3b612e0c565b5b828204905092915050565b6000612c5282612ce5565b9150612c5d83612ce5565b925082821015612c7057612c6f612ddd565b5b828203905092915050565b6000612c8682612cc5565b9050919050565b60008115159050919050565b60007fffffffff0000000000000000000000000000000000000000000000000000000082169050919050565b600073ffffffffffffffffffffffffffffffffffffffff82169050919050565b6000819050919050565b82818337600083830152505050565b60005b83811015612d1c578082015181840152602081019050612d01565b83811115612d2b576000848401525b50505050565b60006002820490506001821680612d4957607f821691505b60208210811415612d5d57612d5c612e3b565b5b50919050565b6000612d6e82612ce5565b91507fffffffffffffffffffffffffffffffffffffffffffffffffffffffffffffffff821415612da157612da0612ddd565b5b600182019050919050565b6000612db782612ce5565b9150612dc283612ce5565b925082612dd257612dd1612e0c565b5b828206905092915050565b7f4e487b7100000000000000000000000000000000000000000000000000000000600052601160045260246000fd5b7f4e487b7100000000000000000000000000000000000000000000000000000000600052601260045260246000fd5b7f4e487b7100000000000000000000000000000000000000000000000000000000600052602260045260246000fd5b7f4e487b7100000000000000000000000000000000000000000000000000000000600052604160045260246000fd5b6000601f19601f8301169050919050565b612eb381612c7b565b8114612ebe57600080fd5b50565b612eca81612c8d565b8114612ed557600080fd5b50565b612ee181612c99565b8114612eec57600080fd5b50565b612ef881612ce5565b8114612f0357600080fd5b5056fe416e204e465420772f20494420257320686173206265656e206d696e74656420746f202573a26469706673582212208f2fb846f3fe02df75749ee643c9fc5ea44826ae6e556013e5fb54f3b520c45064736f6c63430008000033",
  "linkReferences": {},
  "deployedLinkReferences": {}
}